:020000040800F2
:10000000D0070020E5010008991800081513000822
:10001000551800086F1100081B20000800000000A0
:10002000000000000000000000000000C11A0008ED
:10003000731100080000000021190008451C000889
:10004000FF010008FF010008FF010008FF01000890
:10005000FF010008FF010008FF010008FF01000880
:10006000FF010008FF010008FF010008FF01000870
:10007000FF010008FF010008FF010008FF01000860
:10008000FF010008FF010008FF010008FF01000850
:10009000FF010008FF010008FF010008FF01000840
:1000A000FF010008FF010008FF010008FF01000830
:1000B000FF010008FF010008FF010008FF01000820
:1000C000FF010008FF010008FF010008FF01000810
:1000D000FF010008F91D0008FF010008FF010008EA
:1000E000FF010008FF010008FF010008FF010008F0
:1000F000FF010008FF010008FF010008FF010008E0
:10010000FF010008FF010008FF010008FF010008CF
:10011000FF010008FF010008FF010008A91C0008FA
:10012000FF010008FF010008FF010008FF010008AF
:1001300000F002F800F047F80AA090E8000C8244B2
:100140008344AAF10107DA4501D100F03CF8AFF28F
:10015000090EBAE80F0013F0010F18BFFB1A43F0A5
:10016000010318476836000088360000103A24BFA3
:1001700078C878C1FAD8520724BF30C830C144BF0C
:1001800004680C607047000000230024002500264E
:10019000103A28BF78C1FBD8520728BF30C148BFEA
:1001A0000B607047662903F0FA81002070471FB585
:1001B00000F09EFA04000020002102F09FFAE060A7
:1001C0001FBD10B510BD00F0ABFB1146FFF7EFFFF0
:1001D00002F02CFA00F0C9FB03B4FFF7F2FF03BCF6
:1001E00001F094FF0948804709480047FEE7FEE711
:1001F000FEE7FEE7FEE7FEE7FEE7FEE7FEE7FEE7D7
:1002000004480549054A064B70470000491C000890
:1002100031010008D0010020D0070020D0030020C9
:10022000D0030020704700000FB4044910B503AAA2
:10023000029800F04BFA10BC5DF814FB1800002087
:100240002DE9F0410E460446002020622046E16878
:10025000884730B3252805D0D4E901219047206A8A
:10026000401CF2E7E168204600278847050018D0C7
:10027000A5F14100192802D820354FF40067324615
:10028000294620462760FFF78DFF40B1012804D0A2
:10029000F61D26F007060836D8E7361DD6E72846AD
:1002A000DAE7206ABDE8F081704770477047704711
:1002B00070472DE9FF4F0C461E464FF0FF378BB0BD
:1002C000D2E90001DDF860800A908A46C1F30A5540
:1002D00005B93D46002108464FF00000BAF1000F75
:1002E00000F4400005DA00EB80004FF4400101EA21
:1002F00050004FEA9059B9F1010F00DDB9460A9854
:1003000050EA4A000ED044F61050A5F2FF3545439E
:100310002F14B8F1000F1ED07542291E1EDDC9F141
:1003200000021CE0B8F1010F4FF0000001D03021B5
:1003300003E0F24305E02154401CB042FBDB3046B1
:100340000022002121540B99C1F80880C1E9002046
:100350000FB0BDE8F08FBD1B6D1CDEE74A4600DA2A
:10036000694206A800F066FA06AB93E8070003AB03
:1003700083E8070050460A9900F03EFB8DE807002D
:10038000A0F500501F3800900398002D09DD42F2BF
:100390001F014A46084403A90390684600F09DFDEA
:1003A00008E0A0F500504A461F3803A903906846AC
:1003B00000F0A7FD8DE807000004000C03D04FF00B
:1003C000FF30410800E01046B8F1000F03D00022D2
:1003D000009215461EE0751E05D400F08DF93032EE
:1003E00062556D1EF9D5B3460122084302D00022A2
:1003F0007F1C04E02078302801D100227F1E002AD3
:10040000099786D01DE0112D07DA00F075F930321A
:1004100062556D1C50EA0102F5D1084302D00098E4
:10042000C8B10EE00021681E05E0235C625C6354E5
:100430002254401E491C8142F7DBAB46A81B401EDC
:100440000990002004F80B000B98099AC0F8088066
:10045000C0E9002B7CE711264FF0000859E72DE991
:10046000F04F88460446D21D22F0070191B0D1E931
:100470000001CDE90A0101F0D2FD02460B98C00F40
:1004800001D02D2007E02068810701D52B2002E054
:10049000202101EAC000032A099001D0072A05DBC8
:1004A00003464146204600F085F90BE1207880069E
:1004B00001D5E06900E00620B8F1650F814606D05D
:1004C000B8F1660F18D0B8F1670F70D131E0002095
:1004D000B9F1110F009001DB112301E009F10103D3
:1004E0000AAA01A90CA8FFF7E4FEDDE90C700026BA
:1004F00009F10105834647E001204B4600904FF08B
:1005000000470AAA01A90CA8FFF7D3FEDDE90DB048
:100510000C995D46002610B909F101000D18B9EBE0
:10052000050003D4C0F1FF3609F10105A5EB090070
:100530002BE0B9F1010F01DA4FF001090020B9F108
:10054000110F0090484601DD112300E003460AAA7E
:1005500001A90CA8FFF7ADFEDDE90C704D460026A1
:100560008346207800070AD4AB4500DA5D4601A82F
:10057000012D04DD411911F8011C302907D04F4528
:1005800002DA17F1040F04DA012082460FE06D1E33
:10059000EEE7002F02DCED1B3E4403E0781CA8428E
:1005A00000DD7D1CB81B00F1010A4FF000472078E8
:1005B000000703D4AA4501DB4FF0FF3A0021B7F151
:1005C000004F0DF143088DF8431024D002202B2357
:1005D000002F01DA7F422D230A21021EA0F1010023
:1005E00000DC5FB197FBF1FC97FBF1F201FB1C7C97
:1005F00017460CF1300C08F801CDEEE7A8F1010028
:1006000003702188090501D5452100E06521A0F18D
:10061000010800F8011C09980FA9A1EB0807FF1DAC
:1006200000B10120411901EBEA70A1693844081AB0
:10063000401EA0612078C00602D42046AFF300809F
:10064000099828B1D4E901219047206A401C206212
:100650002078C00622D52046AFF300801EE0002E91
:1006600004DBB34502DD01A8805D00E03020D4E961
:1006700001219047206A401C2062761CAAF10100EB
:100680005FEA000A0AD100F033F8C0680168405CF4
:10069000D4E901219047206A401C2062281EA5F160
:1006A0000105DCDC07E0D4E9012118F8010B9047D3
:1006B000206A401C2062381EA7F10107F3DC2046A7
:1006C000AFF30080032011B043E60000074B70B584
:1006D0000D467B4400F05BF80446284600F018F90C
:1006E00010B14FF0FF3070BD204670BD3B1F0000C1
:1006F000004870478C01002030B5B0F10A024FEA83
:10070000900E71F100034EEA817EB0EB0E0061EBBA
:1007100091014FEA101E4EEA017E10EB0E0041EBF4
:1007200011114FEA102E4EEA016E10EB0E0041EB54
:1007300011214FEA104E4EEA014E10EB0E0041EB34
:100740001141401841F100014FEAD00040EA4170E8
:100750004FEAD10110EB80054FEA810444EA90741E
:1007600044EB01046D1944EB0404521BA3414FF008
:10077000000348BF0A3200D530BD401C41F10001E2
:1007800030BD000001694A1C02610878704700B55D
:100790008FB0CDE901310021059105497944CDE9BA
:1007A000031011466846FFF74BFD0FB000BD000077
:1007B000E5FFFFFF2DE9F0411F46044603260168CF
:1007C000072A01F4006004DB08B116A505E016A5B0
:1007D00003E008B115A500E015A521F01000206088
:1007E000A069C01EA0610FB1401EA0612046AFF3FA
:1007F00000804FB1D4E9012138469047206A401C5F
:100800002062C01C206206E0206AFAE7D4E90121D8
:1008100015F8010B9047761EF8D22046AFF3008002
:10082000BDE8F0814E414E006E616E00494E4600BB
:10083000696E66002DE9F047814616468AB0334856
:1008400078440DC88DE80D0030487844801C03AC16
:100850000DC884E80D0041F69B300844372190FB19
:10086000F1F290FBF1F5A5F1800501FB12041B3CB0
:1008700002D56442012000E00020DFF890A080460D
:100880000027FA44AAF1BE0A0DE0E00709D032467B
:10089000684607EB47010AEB810100F032FB8DE867
:1008A000070064107F1C002CEFD1184F7F44AC3F31
:1008B00018E0E80714D007EB04100DF1180A90E8CF
:1008C0000E008AE80E00C068F04201D19819089025
:1008D000324606A903A800F014FB03AB83E8070027
:1008E0006D10641C002DE4D132466946B8F1000F4A
:1008F00003A802D000F0F1FA01E000F002FBC9E920
:100900000001C9F808200AB0BDE8F087702F000088
:10091000007B00F080007047004870476C010020A9
:100920007546FFF7F9FFAE4605006946534620F0CD
:100930000700854618B020B5FFF762FCBDE82040EF
:100940004FF000064FF000074FF000084FF0000B8B
:1009500021F00701AC46ACE8C009ACE8C009ACE83E
:10096000C009ACE8C0098D4670470446AFF300806B
:100970002046FFF731FC00004FF0013C50F8042BFB
:1009800051F8043B9A4221D1A2EB0C03934313EAA2
:10099000CC1317D150F8042B51F8043B9A4215D1CF
:1009A000A2EB0C03934313EACC130BD150F8042BA6
:1009B00051F8043B9A4209D1A2EB0C03934313EA8A
:1009C000CC13DBD04FF00000704700BFD01A01BA43
:1009D000B1FA81F101F0180122FA01F0CB40C1F126
:1009E0002001DBB2C0B2C01A2CFA01F3D11A914334
:1009F00011EAC311E6D170475FEA400C08BF91F0DD
:100A0000000F4FEA8C234FEAC12243EA51514FEACB
:100A10001C5018BF00F5F0404FEA300018BF41F0FD
:100A200000415FEA6C5C00F02980BCF1FF3F08BF29
:100A300040F080407047130C06BF12044FF0100CBA
:100A40004FF0000C130E04BF12020CF1080C130F30
:100A500004BF12010CF1040C930F04BF92000CF1BF
:100A6000020CD30F04BF52000CF1010C11464FF0E1
:100A70000002A0F11F00A0EB0C00704711F0004F26
:100A800008BF704731F000413FF4D5AF0B0C06BFF3
:100A900009044FF0100C4FF0000C0B0E04BF0902BC
:100AA0000CF1080C0B0F04BF09010CF1040C8B0FA7
:100AB00004BF89000CF1020CCB0F04BF49000CF1FC
:100AC000010CCCF12003A0EB0C0022FA03F302FA94
:100AD0000CF241EA030100F10100704720F07F4C65
:100AE00080EA030023F07F47ACEB070303F57C5358
:100AF00000F0004003F1FF032DE980494FEA154B58
:100B000009B44FEA144325EA0B4E24EA03480FF2D6
:100B1000042606EB132749083E785FEA320203FBFE
:100B20000667C7F5000707FB06F64FEA54374FEA9A
:100B3000D64606F1020607FB066CCCF1005C4FEAD4
:100B40001C472CEA074C07FB06F40CFB06F504EBEC
:100B500015464FEA961634BF00204FF000404FEA8A
:100B6000D13706FB07FC4FEA1C4C0CFB0BF7D21BE2
:100B700003FB0CF761EB07010CFB0EF7B0EB074032
:100B800072EB17420CFB08F734BFA2EB0742B2EB43
:100B9000074261EB17414FEA0C444FEA910706FB0D
:100BA00007FC4FEA1C4C0CFB0BF7B0EBC74072EB99
:100BB000573203FB0CF734BFA2EBC742B2EBC7427C
:100BC00061EB57310CFB0EF7B0EBC70072EB5772BD
:100BD0000CFB08F734BFA2EBC702B2EBC70261EB14
:100BE0005771039F4FEA816141EA921104EBCC04F3
:100BF0004FEAD1374FEA826206FB07FC42EA9012C5
:100C00004FEA80604FEA1C4C0CFB0BF7D21B03FB36
:100C10000CF761EB07010CFB0EF7B0EB074072EB32
:100C200017420CFB08F734BFA2EB0742B2EB0742B6
:100C300061EB17414FEA8C554FEA910704EB9C2476
:100C400006FB07FC4FEA1C4C0CFB0BF7B0EBC74054
:100C500072EB573203FB0CF734BFA2EBC742B2EB87
:100C6000C74261EB57310CFB0EF7B0EBC70072EBDC
:100C700057720CFB08F734BFA2EBC702B2EBC702F6
:100C800061EB577115EB4C254FEA816141EA9211F6
:100C90004FEA82624FEAD13742EA901206FB07FC24
:100CA00044F100044FEA80604FEA1C4C0CFB0BF748
:100CB000D21B03FB0CF761EB07010CFB0EF7B0EB4B
:100CC000074072EB17420CFB08F734BFA2EB074258
:100CD000B2EB074261EB174115EB1C154FEA81316E
:100CE00041EA92414FEA823242EA90424FEA803032
:100CF0004FEA0C7644F1000448EA03434EEA0B48FD
:100D00004FF0000EB2EB080C71EB030724BF6246F4
:100D100039464EEB0E0E4FF0000B00185241494180
:100D20004BEB0B0BB2EB080C71EB03077BF1000BE9
:100D300024BF624639464EEB0E0E4FF0000B0018F2
:100D4000524149414BEB0B0BB2EB080C71EB030723
:100D50007BF1000B24BF624639464EEB0E0E51EA82
:100D6000020718BF46F0010616EB0E7655F1000299
:100D700054F1000103D5BDE88901BDE80088BDE854
:100D80008901BDE80048B619524141EB0101A3F1C8
:100D90000103704780807F7E7D7C7B7A79787776CF
:100DA00076757473727171706F6E6E6D6C6C6B6A48
:100DB0006A696868676666656464636362616160E6
:100DC000605F5F5E5E5D5D5C5C5B5B5A5A59595863
:100DD00058575756565555555454535352525251CD
:100DE000515050504F4F4F4E4E4D4D4D4C4C4C4B23
:100DF0004B4B4A4A4A49494948484847474747466A
:100E000046464545454444444443434343424242A5
:100E100042414141002B26D4770021D01CB54FEA36
:100E2000370703B44FF010004FF010014FF00000EF
:100E30000FBCBDE810400BF1010BBBF1010F08BF67
:100E40005FEA170722BF12F1010211F101014FF011
:100E5000004143F1000300F0004043EA0000704706
:100E6000F9D35708DAE746EA064613F1400F4FEA8E
:100E700016461FDD13F1200FDFBF16430A4600217F
:100E800020335B42C8D0C3F1200746EA064602FA87
:100E900007F74FEA164646EA0706C3F1200722FA8B
:100EA00003F201FA07F721FA03F14FF0000342EAD7
:100EB0000702B1E746EA020646EA06464FEA164648
:100EC00046EA0106BCBF46EA0646360C4FF0000370
:100ED0004FF000024FF000019EE72DE9C048934615
:100EE00030B491E8380007C831EA400C48BF34EA12
:100EF000430C03D5FFF7F2FDFFF78CFFF0BCBDE814
:100F000000882DE9C048934630B491E8380007C8FE
:100F100010F0804F08BF13F0804F03D100F005F8A8
:100F2000FFF778FFF0BCBDE8008820F07F4780EA3B
:100F3000030023F07F4C07EB0C03A3F57C5300F078
:100F40000040A3F1FE0392F0000F00F0B38095F093
:100F5000000F00F077802DE901494FEA11404FEA78
:100F6000144621EA004800FB06FC24EA064708FB79
:100F700006F607FB08F800FB07F718EB06484CEBF2
:100F8000164C4FEA124B18EB07484FEA15464CEB4C
:100F9000174022EA0B4E0BFB06FC25EA06470EFB28
:100FA00006F607FB0EFE0BFB07F71EEB064E4CEB9F
:100FB000164C4FF000061EEB074E4CEB174B18EB90
:100FC0000B0840F1000018EB0E0B58EB000840F145
:100FD00000008F1A4FF000013CBFC943661B14BFCD
:100FE000B5EB040C00213CBFC943F61B4FEA174484
:100FF0004EEA8E0E27EA04454FEA1C4704FB0762BF
:101000002CEA074C05FB07F70CFB05F604FB0CFC70
:1010100016EB074642EB174216EB0C4642EB1C421E
:101020001BEB060658EB0202414146EA9E0601D53B
:10103000BDE80189B619524141EB0101A3F1010359
:10104000BDE801894FEA14454FEA114724EA0546F5
:1010500021EA074C05FB07F406FB07F70CFB06F13A
:1010600005FB0CFC11EB074144EB17444FEA124718
:1010700011EB0C4144EB1C4422EA074C05FB07F240
:1010800006FB07F70CFB06F605FB0CFC16EB074608
:1010900042EB174216EB0C4642EB1C456A1854F122
:1010A000000148BF7047B619524141EB0101A3F15D
:1010B0000103704795F0000F37D04FEA11424FEA15
:1010C000144721EA024624EA074C02FB07F106FB1B
:1010D00007F70CFB06F402FB0CFC14EB074441EB96
:1010E00017414FEA154714EB0C4441EB1C4125EA2C
:1010F000074C02FB07F506FB07F70CFB06F602FBA5
:101100000CFC16EB074645EB174516EB0C4645EB7A
:101110001C42121951F1000148BF7047B6195241E3
:1011200041EB0101A3F1010370474FEA14454FEA77
:10113000114724EA054621EA074C05FB07F106FBA7
:1011400007F70CFB06F24FF0000605FB0CFC12EB58
:10115000074241EB174112EB0C4251EB1C4148BFD7
:101160007047921841EB0101A3F10103704700BFE2
:10117000FEE770472DE9FC4101F09CF900F06CFCA2
:101180000C4801680C48006800F0C6F8094800687F
:1011900001F03EFF04460D460748006801F038FFA5
:1011A000064632460B4605A0CDE90045FFF73CF860
:1011B000BDE8FC813C00002040000020CDD3C2DD12
:1011C000D2C720256620200D0A2020202020BCD355
:1011D000CBD9BCC62025660D0A0000002DE9F041E0
:1011E000024600250026002000230024002791F855
:1011F00003C00CF00F0591F803C00CF0100CBCF10B
:10120000000F03D091F802C04CEA050591F800C028
:10121000BCF1000F31D0146800202BE04FF0010C1E
:101220000CFA00F3B1F800C00CEA03069E4220D18C
:1012300083004FF00F0C0CFA03F7BC4305FA03FCD4
:101240004CEA040491F803C0BCF1280F06D14FF01A
:10125000010C0CFA00FCC2F814C00AE091F803C0BB
:10126000BCF1480F05D14FF0010C0CFA00FCC2F89C
:1012700010C0401C0828D1D31460B1F800C0BCF1E4
:10128000FF0F34DD546800202EE000F1080C4FF011
:10129000010808FA0CF3B1F800C00CEA03069E42FC
:1012A00021D183004FF00F0C0CFA03F7BC4305FA71
:1012B00003FC4CEA040491F803C0BCF1280F05D1EB
:1012C00000F1080C08FA0CF8C2F8148091F803C079
:1012D000BCF1480F07D100F1080C4FF0010808FAE3
:1012E0000CF8C2F81080401C0828CED35460BDE82A
:1012F000F0810161704770B50446204600F056FC4D
:101300000546611CC8B200F051FC064606EB0520FC
:1013100000B270BD00BFFEE72DE9F04105460C4666
:1013200089480168284602F0C5F8074687480168E1
:10133000384601F0E9FF064685480168304601F06D
:1013400093FE83490860834841688348006802F03F
:10135000B1F806467F488168304602F0ABF87F4915
:1013600008607C48C06880F0004048607948C068E8
:1013700080F0004088607A480068C8600868734957
:10138000096801F0C1FF064672480168304601F065
:101390006BFE70490860714948686C49096801F042
:1013A000B3FF06466B484168304601F05DFE69496F
:1013B00048606A4988686549096801F0A5FF0646E2
:1013C00064488168304601F04FFE62498860634995
:1013D000C8685E49096801F097FF06465D48C16824
:1013E000304601F041FE5B49C8605948016820461B
:1013F00002F060F85B4908605B48007801F070FF1C
:10140000064654480168304601F07EFF574908609F
:101410005548007801F064FF06464E488168304622
:1014200001F072FF524908604F48007801F058FF00
:1014300007464E480168384601F066FF06464D48AB
:101440000168304601F010FE4B490860084601680B
:101450004648006801F06AFE48490860464801684D
:101460004348006801F062FE454908603F48006853
:10147000444908603C48007801F032FF0646354890
:101480004168304601F040FF3F4908603D4801682F
:101490003A48006801F038FF06462E480168304699
:1014A00001F0FEFF2B4908603748016833480068A7
:1014B00001F02AFF064627484168304601F0F0FF58
:1014C000244948602F4801682D48006801F01CFF3E
:1014D000064620488168304601F0E2FF1D498860D9
:1014E000294801682648006801F00EFF06461948A1
:1014F000C168304601F0D4FF1649C8601948016838
:101500001E48006801F000FF064611480168304699
:1015100001F0AAFD0E4908601248016818480068E9
:1015200001F0F2FE064608480168304601F09CFDD5
:101530000549086008460168284601F0BBFF1349C9
:101540000860BDE8F0810000600000205800002025
:1015500044000020840000204C0000205C0100209A
:1015600050000020640000205C0000206800002083
:101570006C00002054000020700000207400002047
:10158000780000207C00002080000020480000201F
:1015900008B50121402000F0D5F910208DF8030096
:1015A0006020ADF8000003208DF802006946024873
:1015B000FFF714FE08BD00000018014010B5002020
:1015C0000E4908600E48006820F470400C4908601D
:1015D0000846006840F44050086000200949C1F8FE
:1015E000AC0100F011F801200449086000F00CF88B
:1015F00000200449C1F8A80110BD0000A8812142C3
:10160000040C01400080214210B5022000F0DAFFF6
:1016100010BD000008B50121082000F093F94FF437
:101620004060ADF8000010208DF8030003208DF815
:10163000020069460448FFF7D1FD4FF440610248BB
:10164000FFF757FE08BD0000000C014010B5002058
:101650000E4908600E48006820F470400C4908608C
:101660000846006840F44050086001200949C1F86C
:10167000AC01FFF7C9FF012004490860FFF7C4FF70
:1016800000200449C1F8A80110BD0000A881214232
:10169000040C01400080214270B505460024164824
:1016A000006820F47040144908600846006840F45F
:1016B00000400860002614E0002010490860FFF791
:1016C000A3FF01200E49C1F8A8016006040E0B48D3
:1016D0007C38006808B1601CC4B2FFF795FF701C2D
:1016E000C6B2082EE8DB15B9FFF7B0FF01E0FFF73F
:1016F00065FF204670BD0000040C0140A881214216
:101700000080214270B504461248006820F4704001
:10171000104908600846006840F440500860002006
:101720000D490860002512E0E0090B49091D086019
:101730006006040E01200949C1F8A801FFF764FF03
:10174000002005490860FFF75FFF681CC5B2082D3F
:10175000EADB70BD040C0140A881214200802142D7
:1017600010B50E48006820F470400C490860084627
:10177000006840F4405008600120094908600949A8
:10178000C1F8A801FFF740FF002005490860FFF7F6
:101790003BFF00200349C1F8A80110BD040C014023
:1017A000AC8121420080214210B50E48006820F42F
:1017B00070400C4908600846006840F440500860DA
:1017C0000020094908600949C1F8AC01FFF71CFF76
:1017D0000120054908600549C1F8AC01FFF714FF75
:1017E00010BD0000040C0140A8812142008021426C
:1017F00010B500241448006820F4704012490860B5
:101800000846006840F40040086001200F49086065
:10181000FFF7FAFE01200E49C1F8A801FFF7F4FE18
:1018200007E0601CC4B2FA2C03DDFFF7BDFF012006
:1018300010BD0648803800680028F2D10349091F0E
:10184000086000BFF4E70000040C0140AC812142B5
:101850000080214200BFFEE710B5FFF7DBFE7520D8
:1018600000F0A4F9682815D100216B2000F0BFF921
:101870000721192000F0BBF906211A2000F0B7F962
:1018800010211B2000F0B3F908211C2000F0AFF953
:10189000002010BD0120FCE77047000070B500215A
:1018A00000230F22C47804B3154C246804F4E064C8
:1018B000C4F5E064210AC1F10403CA40447804FA83
:1018C00003F184781440214309010E4C0678A15598
:1018D000047804F01F050124AC4005786D11AD00BB
:1018E00005F1E025C5F8004109E0047804F01F0582
:1018F0000124AC40044D0678761145F8264070BDB1
:101900000CED00E000E400E080E100E0024901436A
:10191000024A1160704700000000FA050CED00E07B
:101920007047000029B1064AD2690243044BDA61CC
:1019300004E0034AD2698243014BDA617047000038
:101940000010024029B1064A92690243044B9A6191
:1019500004E0034A92698243014B9A617047000098
:101960000010024030B500210022002400232D4D3C
:101970006D6805F00C0121B1042905D0082923D197
:1019800005E0294D056022E0274D05601FE0254D4B
:101990006D6805F47012234D6D6805F480340225DE
:1019A00005EB92421CB9214D554305600BE01D4DDE
:1019B0006D6805F400351DB11C4D5543056002E00E
:1019C000194D5543056002E0174D056000BF00BF8B
:1019D000144D6D6805F0F0010909154D6B5C056843
:1019E000DD4045600F4D6D6805F4E061090A104D5A
:1019F0006B5C4568DD4085600A4D6D6805F460519B
:101A0000C90A0B4D6B5C4568DD40C560054D6D68CE
:101A100005F44041890B074D6B5CC568B5FBF3F5D8
:101A2000056130BD0010024000127A0000093D003F
:101A30001E0000202E00002010B53D20FFF75BFCAB
:101A4000034908803F20FFF756FC0249088010BD7B
:101A500034000020360000202DE9F0414320FFF73C
:101A60004AFC804601F0C9F806460F4A0F4B00F0C9
:101A70008DFE044601F092F800B20D490880084638
:101A8000B0F9000001F014FC804601F0C1FA0646EE
:101A9000084A094B01F0C8F8044600F045FE074922
:101AA0000860BDE8F08100009A99999999594C40D5
:101AB000380000205B5CE333D93F9F3F40000020AB
:101AC000704710B500F002F810BD00000CB5002002
:101AD000019000903348006840F48030314908603C
:101AE00000BF3048006800F4003000900198401CAE
:101AF0000190009818B90198B0F5A06FF1D129486C
:101B0000006800F4003010B10120009001E00020D6
:101B100000900098012843D12348006840F010004D
:101B2000214908600846006820F003000860084664
:101B3000006840F0020008601A484068194948608F
:101B40000846406848600846406840F48060486045
:101B50000846406820F47C1048600846406840F41D
:101B6000E81048600846006840F08070086000BFD8
:101B70000C48006800F000700028F9D0094840685F
:101B800020F00300074948600846406840F0020022
:101B9000486000BF0348406800F00C000828F9D1F5
:101BA0000CBD0000001002400020024070B5044649
:101BB0000025FFF7D5FDD020FFF7A4FDFFF718FEA5
:101BC00005462046FFF79EFDFFF712FE0546FFF78C
:101BD000C7FDD120FFF796FDFFF70AFE054600205E
:101BE000FFF75AFD0546FFF7DFFD284670BD70B5CB
:101BF00005460C46FFF7B4FDD020FFF783FDFFF745
:101C0000F7FD2846FFF77EFDFFF7F2FD2046FFF7C0
:101C100079FDFFF7EDFDFFF7C7FD70BD042808D182
:101C20004FF0E021096941F004014FF0E022116119
:101C300007E04FF0E021096921F004014FF0E022B4
:101C4000116170477047000010B51348006840F0FC
:101C500001001149086008464068104908400E49D3
:101C60004860084600680E4908400B49086008466D
:101C7000006820F4802008600846406820F4FE00D8
:101C800048604FF41F008860FFF71BFF4FF00060B3
:101C90000449086010BD0000001002400000FFF879
:101CA000FFFFF6FE08ED00E010B5FFF763FA012133
:101CB000014800F003F810BD00140040CA4302823E
:101CC000704721B1028842F00102028004E00288DC
:101CD0004FF6FE731A40028070471AB183890B4396
:101CE000838102E083898B438381704700220288CD
:101CF0001D4B98420ED01D4B98420BD0B0F1804F37
:101D000008D01B4B984205D01A4B984202D01A4B70
:101D1000984204D14FF68F731A404B881A43174BE1
:101D2000984207D0164B984204D04FF6FF431A4012
:101D3000CB881A4302808B8883850B8803850A4BE6
:101D400098420BD0094B984208D00E4B984205D0D0
:101D50000D4B984202D00D4B984201D10B7A03866D
:101D60000123838270470000002C014000340140B1
:101D70000004004000080040000C0040001000403B
:101D80000014004000400140004401400048014070
:101D90007FB505460C4601212020FFF7C3FD4FF417
:101DA000A060FFF7B3FD37208DF8000002208DF80A
:101DB000010000208DF8020001208DF80300684624
:101DC000FFF76CFD0020ADF80A00ADF80600ADF895
:101DD0000850ADF8044001A90648FFF787FF01222B
:101DE00041210448FFF779FF01210248FFF769FF0D
:101DF0007FBD00000014004010B540F225511D4881
:101E000000F04AF810B31B4800F002F9C4B21A48B7
:101E1000008800F40040C8B91748008800F48040EA
:101E200060B10A2C03D000201349088020E012483A
:101E3000008840F400401049088019E00D2C06D1BC
:101E40000D48008840F480400B49088010E00A48A3
:101E50000088C0F30D0009490C5407480088401C55
:101E60000549088008460088C72801DD0020088051
:101E700010BD0000003801401C000020940000202C
:101E800021B1828942F40052828104E082894DF6B8
:101E9000FF731A408281704770B502460024002308
:101EA0000025002040F66A16B14200D100BFC1F300
:101EB000421501F01F03012606FA03F3012D02D19A
:101EC0009689334006E0022D02D1168A334001E0A4
:101ED000968A33400C12012606FA04F41688344020
:101EE00013B10CB1012000E0002070BDF0B5034635
:101EF000002400260025002040F66A17B94200D1D0
:101F000000BF1846C1F3421401F01F06012707FA6B
:101F100006F5012C01D10C3004E0022C01D1103067
:101F200000E014301AB107682F43076002E0076829
:101F3000AF430760F0BD00002DE9F04786B00546CD
:101F40000E460024A24600BFA1460027B08900B17A
:101F500000BF2F462C8A4CF6FF700440F0880443E3
:101F60002C82AC894EF6F3100440B08831890843C6
:101F7000718908430443AC81AC8A4FF6FF400440AA
:101F8000B0890443AC8201A8FFF7ECFC1F488742EC
:101F900002D1DDF810A001E0DDF80CA0A88900F462
:101FA000004040B10AEBCA0000EB0A10316849005A
:101FB000B0FBF1F807E00AEBCA0000EB0A10316849
:101FC0008900B0FBF1F86420B8FBF0F004012009AF
:101FD000642101FB1089A88900F4004040B132203F
:101FE00000EBC900B0FBF1F000F00700044308E08B
:101FF000322000EB09106421B0FBF1F000F00F007B
:1020000004432C8106B0BDE8F08700000038014091
:1020100001468888C0F30800704700BFFEE749000A
:1020200050EAC12018BF04204A0D18BF40F001003B
:1020300040F2FF72B2EB515F08BF40F0020001288E
:1020400008BF052070472DE9F0414F1E00EBC70186
:102050000446D1E9000115461E4637F006020DD0B0
:102060002A46334600F0E0FD7F1E04EBC703D3E9A8
:10207000002300F08BFB37F00602F1D1022F25D0B0
:10208000042F13D0062F18BFBDE8F0812A4633462F
:1020900000F0CAFDD4E90A2300F078FB2A46334653
:1020A00000F0C2FDD4E9082300F070FB2A46334655
:1020B00000F0BAFDD4E9062300F068FB2A46334657
:1020C00000F0B2FDD4E9042300F060FB2A46334659
:1020D00000F0AAFDD4E9022300F058FB2A4633465B
:1020E00000F0A2FDD4E90023BDE8F04100F04EBBB2
:1020F000012201F088BA00F049BB0000024A00202A
:10210000110701F080BA000001FDFFFF014600BF8A
:10211000704700002DE9F84F04460D4621F00040BD
:1021200000917349814211DC7249884201DC06D179
:102130002CB120462946BDE8F84FFFF7D9BF6E48BD
:10214000002DCCBF6D496E49BDE8F88F6D498142C5
:1021500011DD6D498142D8BF4FF0FF366DDD20465D
:102160002946FFF75CFF042808BFFFF7C7FF20469A
:102170002946BDE8F88F6549654F25F00045814245
:1021800033DD6449814219DD002632464FF0804339
:102190002046294600F0FAFA80468A460122204667
:1021A000294601F030FA00223B4600F047FE424645
:1021B000534600F09BFB04460D463EE001260022FC
:1021C000BA463B462046294600F0E0FA80460F46D4
:1021D000002253462046294600F030FE42463B4648
:1021E00000F084FB04460D4627E04B4981421BDD8D
:1021F000DFF828A10226002253462046294600F097
:1022000013FD00223B4600F0C1FA80460F46002233
:1022100053462046294600F011FE42463B4600F058
:1022200065FB04460D4608E0032622462B460020A7
:102230003B4900F05BFB04460D4622462B46104608
:10224000194600F0F1FC8B46824602460B4600F030
:10225000EBFC07460246334888460B460621784485
:10226000FFF7F1FE52465B4600F0DEFC82462E4848
:102270008B463A46434605217844FFF7E4FE3A464A
:10228000434600F0D1FC02460B46002E504659460C
:102290000CDA00F07BFA22462B4600F0C5FC01B0B8
:1022A00022462B46BDE8F04F00F0BCBD00F06EFAB0
:1022B00022462B4600F0B8FC1C4A7A4402EBC603C7
:1022C000D3E9002300F0BAFD22462B4600F0B6FD0C
:1022D000174A7A4402EBC603D3E9002300F0A2FDBB
:1022E000009A002AB8BF81F00041BDE8F88F0000D5
:1022F000000010440000F07F182D4454FB21F93FEA
:10230000FB21F9BF0000DC3F0000203E0000F33F4E
:102310000000F03F0000E63F008003400000F83F6F
:102320000000F0BF9E1400005C140000FA130000CF
:10233000C21300002DE9F04D9446CCF1000423F0C7
:1023400000464CEA0404524F46EAD4749A46884642
:1023500021F00042BC4206D8454240EA050442EA68
:10236000D474BC4204D9BDE8F04D6246FFF7C3BE49
:10237000AAF14055A5F17F6555EA0C040BD0022463
:1023800004EAAA74434DDFF810E144EAD87452EA33
:10239000000B04D00CE0BDE8F04DFFF7BBBE002CF5
:1023A00014BF012CBDE8F08D022C30D0032C32D0AC
:1023B00056EA0C0B0AD0BE4220D1BA4209D126F00F
:1023C000804622F080423346114617E000291ADB8E
:1023D00025E0DFF8C8B0FB44002C04BFDBE90001B6
:1023E000BDE8F08D012C02BFDBE9000181F0004166
:1023F000BDE8F08D022C0AD0032C0CD0BA4212D1C9
:10240000B8F1000F0BDA23482549BDE8F08D2846C6
:102410002449BDE8F08D28467146BDE8F08D1D4881
:102420002149BDE8F08D921B12153C2AC4BF194802
:102430001D490EDCBAF1000FBEBF12F13C0F0020A7
:10244000014606DB624600F051FA21F00041FFF739
:1024500061FE002C08BFBDE8F08D012C04BF81F0A7
:102460000041BDE8F08D114A114B022C07D000F05D
:10247000E5FC2A46BDE8F04D0A4B00F0DFBC00F059
:10248000DDFC2A46BDE8F04D064B00F0CBBC000059
:102490000000F07F182D4454FB2109C056130000A2
:1024A000FB21F9BFFB210940FB21F93F075C1433F5
:1024B00026A6A13C2DE9FF5FFFF7BEFA2A48B0F936
:1024C0000000002821DD2948B0F9000000F0F0FEEE
:1024D000039000F09DFD804689462348B0F9000036
:1024E00000F0E6FE039000F093FD824642464B4624
:1024F000FFF720FF06461E4A1E4B00F095FB0446E0
:1025000000F012F91C4908602BE01748B0F90000F0
:1025100000F0CEFE019000F07BFD06460F4613480A
:10252000B0F9000000F0C4FE019000F071FD3246E9
:102530003B46CDE90201FFF7FDFE80460C4A0D4BFC
:1025400000F072FB044600220C4B00F077FC824640
:1025500000F0EAF8084908600846006880F000408A
:102560000860BDE8FF9F0000340000203600002016
:10257000775AF01ADCA54C403C0000200080564001
:1025800010B56FF00400FFF749FB0A4800680A49DC
:10259000B0FBF1F0094908700846007800EB4001F3
:1025A000C1EBC0104FF6FF7101EAC000044908807A
:1025B00010BD00000000002000127A00140000206E
:1025C000160000200146114A12784A434FF0E023DA
:1025D0005A6100229A611A46126942F001021A6198
:1025E00000BF4FF0E022106900F001021AB100F4C0
:1025F0008032002AF5D04FF0E022126922F0010269
:102600004FF0E0231A6100229A6170471400002005
:1026100000BF054A128802F04002002AF9D0C2B277
:10262000014B1B1D1A807047003801404FF4A06019
:10263000FFF76CF9FFF7A4FF4FF4E13000F00EF85C
:10264000FEF7A6FF00BFFFF707F90028FBD13221F4
:1026500041F61F40FFF79CFB00BFFEE710B586B0B8
:102660000446012144F20400FFF76CF94FF40070B6
:10267000ADF8140003208DF8160018208DF817000F
:1026800005A91C48FEF7AAFD4FF48060ADF81400C0
:1026900004208DF8170005A91648FEF79FFD252098
:1026A0008DF8000003208DF801008DF80200012054
:1026B0008DF803006846FFF7F1F801940020ADF8AB
:1026C0000800ADF80A00ADF80C00ADF810000C20C1
:1026D000ADF80E0001A90848FFF72EFC012240F2D8
:1026E00025510548FFF702FC01210348FFF7C8FB0D
:1026F00006B010BD000801400038014010B50029A7
:102700000AD00878002807D005487844FEF734F945
:10271000002801D0002010BD0248784410BD000000
:10272000E2100000DA10000021F00042A2F1605235
:10273000B2F5801F01F0004328BFD2F17F6C0BD9A6
:102740005FEA001C43EAC20242EB507018BF7047B8
:1027500028BF20F001007047B2F5801FBCBF1846AB
:1027600070474FEA410C1CF5001F02D2084600F0EA
:1027700092BE70B500F002FB00000089FFF7F6BFC3
:102780004FF00040A0F580007047000010B591EABE
:10279000030F48BF83F0004300F15883841A71EBA4
:1027A000030C05D2121943EB0C03001B61EB0C0167
:1027B000DFF824E14FEA1154A4EB135C1EEA430F47
:1027C00018BF9EEA445F73D023EA0E03DCF1200EAB
:1027D00021EA045143F4801332D322FA0CFE10EBA9
:1027E0000E0023FA0CFE41EB0E01CCF1200E03FA91
:1027F0000EFE10EB0E0051F10001B1F5801FCCF17F
:10280000200E32D201EB045112FA0EF2BDE8104054
:1028100058BF7047401C38BF5FEA420218BF70477C
:10282000002814BF20F0010041F100014FEA4103EC
:1028300013F5001F38BF7047A1F1C04100F0ECBA9A
:10284000012A43EB0302ACF1200CDCF11F0E32BF76
:102850004FF0000E23FA0CF310EB030041EB045190
:10286000B4EB115FD0D0A1EB045101F58011490800
:102870005FEA300001EB04510ED350F1000038BF85
:1028800012FA0EFE08D1BDE81040C9E7401C38BF5F
:102890005FEA4202CAD1C3E7BDE810404FEA4103F4
:1028A00013F5001F38BF7047A1F1C04100F0B4BA62
:1028B0009EEA445F08D011EA5E0FBDE8104004BFF5
:1028C00001F0004100207047BDE8104070B500F0F5
:1028D00055FA00BF64FBBE3E0000E0FF02494FF026
:1028E000000000F05EBE00BF0000F87F2DE9C0418F
:1028F00030B4DFF8A0C23CEA111418BF3CEA13144C
:1029000000F0EC8081EA03051CEA111444EAD57456
:1029100018BF1CEA131500F0C780A4EB05044FF0A4
:10292000004545EAC12145EAC32341EA505143EA43
:10293000525304F17F74994204F500344FEAC020E9
:102940004FEAC22208BF904200F09C804FEA136514
:102950000FF24016765D4FEA134506FB05F7C7F107
:10296000807706FB07F74FEAD737A7FB0368764265
:10297000C8F58038A7FB06CE38BFA8F1010807FBD1
:1029800008E64FF0000EA6FB028CE6FB03CEDCF15E
:10299000000CCEF1004E38BFAEF1010EA6FB0C5874
:1029A0004FF000074FF00005E6FB0E87A1FB08C6BD
:1029B000A0FB07CE16EB0E0645F10005E1FB07650F
:1029C00015F1E04E7EBFA4F580345FEA46066D4106
:1029D00016F1800745F100054FEA17274FEA066612
:1029E00047EA0567A6F1DE46B6F1805F4FEA152596
:1029F0001FD9384624F0010C05EBC471BCF1FE6F01
:102A000001EB0C1102D8F0BCBDE8008124425CBF90
:102A100001F5801E9EEAC47F02D4F0BCBDE80081AF
:102A2000244238D4F0BCA1F1C041BDE8004100F01F
:102A3000F3B94FEAD22242EA43524FEAD323A7FB2B
:102A400002864FEAD02040EA415007FB03661EEAA7
:102A50000E0F4FEAD12105FB026658BFA6EB0056C8
:102A6000B6EB00564FEA520E4EEAC37E18EB0E0E3E
:102A700056EB530EBDD518EB02085E417F1C55F195
:102A80000005B6E74FF480154FF000074FF0000641
:102A90004FF00008ADE7F0BC4FF0000001F1C0417D
:102AA00001F00041BDE8008111EA0C1F0CEA13158A
:102AB00000D00CE013EA0C1F00F025804FF000005E
:102AC000F0BC81EA030101F00041BDE80081F0BCE7
:102AD000BDE8004181EA030100F09EB9F0BCBDE809
:102AE000004170B500F04AF9097EFC3E00F007B8DD
:102AF00081EA03014FF0000001F00041704781EAD4
:102B0000030100F089B9F0BCBDE800414FF00000BE
:102B100021497047FFFDFBF9F7F5F4F2F0EEEDEB1C
:102B2000E9E8E6E4E3E1E0DEDDDBDAD8D7D5D4D3CB
:102B3000D1D0CFCDCCCBCAC8C7C6C5C4C2C1C0BF17
:102B4000BEBDBCBBBAB9B8B7B6B5B4B3B2B1B0AF1D
:102B5000AEADACABAAA9A8A8A7A6A5A4A3A3A2A101
:102B6000A09F9F9E9D9C9C9B9A99999897979695BC
:102B700095949393929191908F8F8E8E8D8C8C8B58
:102B80008B8A8989888887878685858484838382E0
:102B9000828181800000FF070000F87F4FEA410337
:102BA0004FEA5353A3F58063D3F11E03C8BFD3F19B
:102BB000210C0CDD4FF0004242EAC12242EA5052A1
:102BC00032FA03FC8CEAE17CACEBE1707047102B2D
:102BD000C4BF0020704703F5787CBCF1FF3F04D0F0
:102BE0006FF0004282EA2100704770B500F0C6F82D
:102BF0004992248000207047F2E710F0004248BF5D
:102C00004042B0FA80F310FA03F10AD0C3F11D0379
:102C100003F580634FEA415002EB035202EBD121EE
:102C200070474FF000007047DFF848C170B51CEAEC
:102C3000111E1EBF1CEA13159EEA0C0F95EA0C0F1D
:102C400000F06F8081EA030423EA4C134EEAD47E3D
:102C500021EA4C1141F4801143F48013AE44A1FBEE
:102C6000024CA0FB0365AEF17F7E361955EB0C05D7
:102C7000A1FB034C4CF10003A0FB021C16EB0C065D
:102C8000654153F10003094218BF46F0010613F4F1
:102C9000007F0BD14FEA03314FEA0530340341EA9C
:102CA000155140EA16506FF003020AE04FEAC321C3
:102CB0004FEAC520F40241EA555140EA56506FF000
:102CC000020202EB2E4201EB025585EACE710AD0D8
:102CD0005FEA440C18BF24F0004450F1000041F1B9
:102CE000000120EAD47040F2FE7C624500D270BD43
:102CF000A84214BF4FF080444FF04044002E08BF5C
:102D00000024BEF1806FA8BFA1F1C041BDE87040B2
:102D100080F282804FF0000001F1C04101F00041DB
:102D200070479EEA0C0F0CEA131518BF95EA0C0FBA
:102D300006D04FF0000081EA030E0EF0004170BD96
:102D400000F01CF88900013E00F007B800F009B857
:102D50004FEA430C5FEA5C5C08D081EA030100F0B3
:102D60005BB84FEA410C5FEA5C5CF6D14FF00000C3
:102D7000014970470000FF070000F87F0EF1020EC6
:102D80002EF0030E5EF8046B364205D4012A43EBA5
:102D9000030515F5001F12D8012841EB010C1CF5A5
:102DA000001F0CD80ED14FEAD17C15F5001F0CEB9B
:102DB0004C0C0CF1020C08BF4CEBD37C04E04FF040
:102DC000080C01E04FEAD37C0CEB4C0526FA05F623
:102DD00006F00706B6F1040C06D20EEB860CBDE831
:102DE00070404CF0010C6047DFE80CF0090B020268
:102DF0004FF000414FF00000A1F5002170BD1946D1
:102E00001046012851EB010418BFD4F5001484BF0B
:102E1000002001F0004170BD0808A0F500114FEA44
:102E20003101704791EA030F10B581F000413FF581
:102E3000B5AC83F0004300F009B8000010B591EA8A
:102E4000030F48BF83F000433FF5A8AC841A71EB31
:102E5000030C07D212198CF0004C43EB0C03001B3F
:102E600061EB0C01DFF8A4E14FEA1154A4EB135C11
:102E70001EEA430F18BF9EEA445F00F0B08023EAC9
:102E80006E03524221EA0451C3EB6E0338BF5B1E4E
:102E9000DCF1200E25D322FA0CFE10EB0E0043FAD3
:102EA0000CFE41EB0E01CCF1200E03FA0EFE10EBEE
:102EB0000E0051F10001CCF1200E29D412FA0EF2CD
:102EC00001EB0451BDE8104058BF7047401C1CBFC7
:102ED000B2F1004F704700280CBF491C20F00100E0
:102EE000704712EB020E43EB030218BF4FF0010EC6
:102EF0004EEA4202ACF1200CDCF11E0E54D943FA2A
:102F00000CFE10EB0E0051F1FF31CCF11E0ED5D5A9
:102F10000EF1010E12FA0EFE404141EB010101EBF0
:102F2000445C5FEA5C5C10D910EBDE7001EB04518D
:102F300038BFBEF1004FBDE8104018BF70470028F1
:102F40000CBF491C20F00100704730D24FEAD42C4E
:102F500011F5001124F400641BD0B1FA81F20B3A90
:102F6000A41AA41ED2F12003914030FA03F31943AE
:102F7000904001EBCC71002C01EB0451BDE81040F6
:102F8000A8BF704701F1C0414FF0000001F00041BF
:102F90007047B0FA80F310FA03F100D110BDE41AC3
:102FA000173C4805C90AE4E701EB045110BD49107C
:102FB00001EB0451BDE810404FEA300002E04FF051
:102FC000000170474A0008BF0042F8D0B2F5001F68
:102FD00028BF704701F000414FF0000070479EEAA3
:102FE000445F07D011EA5E0FBDE8104004BF002126
:102FF00000207047BDE8104070B5FFF7BFFE00BF6E
:1030000040DFF63E83F00041104670470000E0FFCD
:1030100043004FEAD30C4FEA3C0C43401FBF40072C
:103020000CF1605113F0FE4F70471CF0006F03D19C
:1030300000200CF0004170470CF0004343EA507050
:1030400010B540EACC0000F0E0F900BF00000092AB
:103050004FEA0001FFF7E0BE4FF000414FF00000E3
:10306000A1F500217047000090EA010F48BF81F0F0
:10307000004100F12682421A3CBF801A89184FEAAB
:10308000D0524FF07F4C1CEA410FA2EBD15318BF36
:103090009CEA026F00F03B804FF0004C4CEA0020AD
:1030A0004CEA012121FA03FC10EB0C0C1ED202F1B8
:1030B000FF325FEA1C2040EBC25038BF70471CF063
:1030C0007F0F4FEA400C18BFBCF17F4F38BF7047ED
:1030D000C3F12003994008BF20F00100BCF17F4FED
:1030E00038BF7047A0F1C04000F0D5B94FEA3C00AE
:1030F000000A40EBC25028BF1CF0FF0F4FEA400C03
:10310000E6D018BFBCF17F4F38BF7047EAE79CEAB2
:10311000026F05D010EA5C0F08BF00F00040704756
:1031200010B500F072F900BF64FBBE3E4FF47F0C97
:103130001CEAD0121EBF1CEAD11392EA0C0F93EACC
:103140000C0F00F0858090EA010F48BF42F48072B6
:1031500040F4000C41F400002CF07F4120F07F404F
:1031600000B58142A2EB03020FF2081CACEB504EFB
:10317000C0F100009EF800E04FEA4E0E00FB0EFC8E
:1031800038BF49004FEA2C1C02F5FA020CFB0EF383
:103190004FEACE1E4FEA112C4FEAC1210EEB635EBF
:1031A00042EB22420EFB0CFC4FEA1C5300FB0311C6
:1031B0004FEA112C4FEA01310EFB0CFC4FEADC4CBC
:1031C00000FB0C11C14228BF09184CEB03335DF81A
:1031D00004EB10EB410143EBC250B2F57C0F38BF5A
:1031E000704729D512F0F00F1CBF00F1C04000F06D
:1031F00000407047008182838485868788898B8C14
:103200008D8E8F919293959697999A9C9D9FA0A24F
:10321000A3A5A7A8AAACAEB0B2B3B5B7B9BCBEC09F
:10322000C2C5C7C9CCCED1D4D7D9DCDFE2E6E9EC40
:10323000F0F3F7FAFE0000004FEA400C0CF1807C3E
:10324000BCF17E4F28BF7047B0F1C04000F023B9F9
:1032500090EA010F0CEAD11348BF42F48072624534
:1032600038BF634507D213F47F0F16D080EA010000
:1032700000F00040704710B500F0C7F8097EFC3E32
:1032800000F005B880EA010000F00040704780EAD5
:10329000010000F0004000F0FEB812F47F0F04BF00
:1032A0000248704780EA010000F0F5B80000C07FD6
:1032B00010F0004148BF4042B0FA80F310FA03F228
:1032C000C3F19D030BD051EAC35101EB1220530609
:1032D00038BF704700F1010008BF20F001007047BF
:1032E000B0FA80F310FA03F2C3F19D030AD0D905B6
:1032F00001EB1220530638BF704700F1010008BFF0
:1033000020F00100704700004FF47F0C1CEAD0123F
:103310001EBF1CEAD11392EA0C0F93EA0C0F00F0C7
:10332000478090EA010F48BF42F480724FF0004C92
:103330004CEA00204CEA012102EB0302A0FB01133E
:10334000A2F50002002918BF43F001035B0028BF6B
:103350004FEA330342EB22425FEA132C4CEBC2509C
:103360002EBFBCEB436FB2F57C0F70474FEA036C86
:10337000BCF1004F08BF20F00100B2F57C0F38BF50
:1033800070470BD582F0FF0212F5803FC8BF70472F
:1033900000F1C040D8BF00F00040704700F5000CBD
:1033A0005FEA4C0C48BF7047B0F1C04000F073B802
:1033B00090EA010F0CEAD11348BF42F480726245D3
:1033C00038BF634504D280EA010000F00040704736
:1033D00010B500F01AF800BF8900013E00F007B8F0
:1033E00000F009B85FEA410C5FEA1C6C08D080EA83
:1033F000010000F050B85FEA400C5FEA1C6CF6D1A7
:103400004FF00040A0F5800070470EF1020E2EF044
:10341000030E5EF8044B244204D44FEA4102B2F199
:103420007F4F11D84FEA4003B3F17F4F0CD80ED134
:103430004FEAD07CB2F17F4F0CEB4C0C0CF1020C3C
:1034400008BF4CEBD17C04E04FF0080C01E04FEAE0
:10345000D17C0CEB4C0324FA03F404F00704B4F120
:10346000040C06D20EEB840CBDE810404CF0010CAD
:103470006047DFE80CF0070802024FF00040A0F5BB
:10348000800010BD0846420018BFD2F1807288BF8C
:1034900000F0004010BDFF2141EAD050C005704748
:1034A00080F0004090EA010F7FF5E5AD81F000412A
:1034B00000F007B890EA010F48BF81F000413FF5E6
:1034C000DAAD421A04D882F00042A0EB02001144A7
:1034D0004FEAD0524FF07F4C1CEA410FA2EBD15380
:1034E00018BF9CEA026F4AD04FF0004C4CEA002013
:1034F0004CEA012121FA03FCB0EB0C0C0FD412F0C2
:10350000FE0F36D05FEA4C001DD5001240EBC250D2
:1035100038BF70471CF03F0F18BF70470BE0A2F197
:1035200001025FEA1C2040EBC25038BF70471CF01C
:103530007F0F18BF7047C3F12003994014BF401E8E
:1035400020F00100704780084FEA122308BF70473F
:10355000B0FA80FCA2EB0C02CCF1280C60FA0CF063
:1035600093EA122F04BF00EBC25070474FEAC370BA
:103570007047130A5FEADC1008BF7047F6E79CEA61
:10358000026F04D010EA5C0F08BF0020704710B52E
:10359000FFF73BFF40DFF63E81F000407047FCF74D
:1035A0005EBF0CF00F03092B08BF082000F0598004
:1035B0000A2B0BD0082B18BF704708BF1CF0400F18
:1035C0000AD04FF000004FF0000170471CF0400F90
:1035D00018BF4FF0004070471CF0100F08D020F0CB
:1035E000704300F07F4242EAD3014FEA43707047D4
:1035F00000F0604021F07F4242EA000201F07F408B
:1036000040EA727070474FF0FF0C4CF4E06C1CEA1B
:1036100011531CBF9CEA030C9445C2BFDA4201EB74
:1036200002517047002B0DD0BCF1000F0FD0002AC3
:1036300001F00041A4BF41F0E04141F07F614FF053
:103640000000704701F000414FF00000704750EA61
:1036500001334FF09B0C18BF4CF0806C7FF43EA9F7
:1036600070471CF4801F11D01CF4E02F03D06FEAC8
:10367000CC31490070474FF04050EFF3008222F008
:10368000704242EA000282F3008870474FF0000067
:1036900070470000000000004FBB610567ACDD3FD4
:1036A000182D4454FB21E93F9BF681D20B73EF3F69
:1036B000182D4454FB21F93FE2652F227F2B7A3CE1
:1036C000075C143326A6813CBDCBF07A8807703C9A
:1036D000075C143326A6913CC4EB98999999C9BF0D
:1036E000711623FEC671BCBF6D9A74AFF2B0B3BF42
:1036F0009AFDDE522DDEADBF2F6C6A2C44B4A2BF02
:103700000D5555555555D53FFF8300922449C23F6D
:103710006E204CC5CD45B73F513DD0A0660DB13FA1
:10372000EB0D76244B7BA93F11DA22E33AAD903FB3
:10373000000000000000000002400000000000A0A7
:103740000000000005400000000000C8000000006C
:103750000C4000000000409C0000000019400000E8
:103760000020BCBE0000000034400000BFC91B8E1A
:1037700000000004B5400000504BCFD06607E2CFF8
:10378000010000006C4100003E8251AADFEEA73428
:1037900001000000D9420000DCB5A0E23A301F97DA
:1037A000FFFFFFFFB4450000FD25A0C8E9A3C14FFE
:1037B000FFFFFFFFFF3F000000000080000000004F
:1037C000FF3F0000000000800000000008380008F3
:1037D00000000020940000006C0100089C380008E4
:1037E000940000203C070000880100081C00000035
:1037F00043000000F8FFFFFF0C0000000E00000077
:103800000F0000002E00000000A24A04000000008B
:103810000000000001020304060708090000000080
:10382000000000000000000000000102030401028B
:10383000030406070809020406080000000000004F
:103840000000000000000000000000000000000078
:10385000000000006F12833AA69B443B0000003F2B
:103860000AD7A33B01000000000000000000000098
:103870000000000000000000000000000000000048
:103880000000000000000000000000000000803F79
:0C38900000000000000000000000803F6D
:04000005080001E509
:00000001FF
